{
  "contractName": "TLR",
  "abi": [
    {
      "inputs": [
        {
          "internalType": "uint256",
          "name": "_initialSupply",
          "type": "uint256"
        }
      ],
      "payable": false,
      "stateMutability": "nonpayable",
      "type": "constructor"
    },
    {
      "anonymous": false,
      "inputs": [
        {
          "indexed": true,
          "internalType": "address",
          "name": "_tokenOwner",
          "type": "address"
        },
        {
          "indexed": true,
          "internalType": "address",
          "name": "_spender",
          "type": "address"
        },
        {
          "indexed": false,
          "internalType": "uint256",
          "name": "tokens",
          "type": "uint256"
        }
      ],
      "name": "Approval",
      "type": "event"
    },
    {
      "anonymous": false,
      "inputs": [
        {
          "indexed": true,
          "internalType": "address",
          "name": "_from",
          "type": "address"
        },
        {
          "indexed": false,
          "internalType": "uint256",
          "name": "_value",
          "type": "uint256"
        }
      ],
      "name": "Burn",
      "type": "event"
    },
    {
      "anonymous": false,
      "inputs": [
        {
          "indexed": true,
          "internalType": "address",
          "name": "_from",
          "type": "address"
        },
        {
          "indexed": true,
          "internalType": "address",
          "name": "_to",
          "type": "address"
        },
        {
          "indexed": false,
          "internalType": "uint256",
          "name": "tokens",
          "type": "uint256"
        }
      ],
      "name": "Transfer",
      "type": "event"
    },
    {
      "anonymous": false,
      "inputs": [
        {
          "indexed": true,
          "internalType": "uint256",
          "name": "reportId",
          "type": "uint256"
        },
        {
          "indexed": false,
          "internalType": "uint256",
          "name": "latitude",
          "type": "uint256"
        },
        {
          "indexed": false,
          "internalType": "uint256",
          "name": "longitude",
          "type": "uint256"
        },
        {
          "indexed": false,
          "internalType": "string",
          "name": "message",
          "type": "string"
        }
      ],
      "name": "markedHelpful",
      "type": "event"
    },
    {
      "anonymous": false,
      "inputs": [
        {
          "indexed": true,
          "internalType": "address",
          "name": "reporter",
          "type": "address"
        },
        {
          "indexed": false,
          "internalType": "uint256",
          "name": "latitude",
          "type": "uint256"
        },
        {
          "indexed": false,
          "internalType": "uint256",
          "name": "longitude",
          "type": "uint256"
        },
        {
          "indexed": false,
          "internalType": "string",
          "name": "message",
          "type": "string"
        }
      ],
      "name": "newReport",
      "type": "event"
    },
    {
      "constant": true,
      "inputs": [
        {
          "internalType": "uint256",
          "name": "",
          "type": "uint256"
        }
      ],
      "name": "Reports",
      "outputs": [
        {
          "internalType": "address payable",
          "name": "Reporter",
          "type": "address"
        },
        {
          "internalType": "uint256",
          "name": "latitude",
          "type": "uint256"
        },
        {
          "internalType": "uint256",
          "name": "longitude",
          "type": "uint256"
        },
        {
          "internalType": "string",
          "name": "message",
          "type": "string"
        },
        {
          "internalType": "uint256",
          "name": "votes",
          "type": "uint256"
        },
        {
          "internalType": "bool",
          "name": "helped",
          "type": "bool"
        }
      ],
      "payable": false,
      "stateMutability": "view",
      "type": "function"
    },
    {
      "constant": true,
      "inputs": [
        {
          "internalType": "address",
          "name": "",
          "type": "address"
        },
        {
          "internalType": "address",
          "name": "",
          "type": "address"
        }
      ],
      "name": "allowance",
      "outputs": [
        {
          "internalType": "uint256",
          "name": "",
          "type": "uint256"
        }
      ],
      "payable": false,
      "stateMutability": "view",
      "type": "function"
    },
    {
      "constant": false,
      "inputs": [
        {
          "internalType": "address",
          "name": "_spender",
          "type": "address"
        },
        {
          "internalType": "uint256",
          "name": "_value",
          "type": "uint256"
        }
      ],
      "name": "approve",
      "outputs": [
        {
          "internalType": "bool",
          "name": "",
          "type": "bool"
        }
      ],
      "payable": false,
      "stateMutability": "nonpayable",
      "type": "function"
    },
    {
      "constant": true,
      "inputs": [
        {
          "internalType": "address",
          "name": "",
          "type": "address"
        }
      ],
      "name": "balanceOf",
      "outputs": [
        {
          "internalType": "uint256",
          "name": "",
          "type": "uint256"
        }
      ],
      "payable": false,
      "stateMutability": "view",
      "type": "function"
    },
    {
      "constant": true,
      "inputs": [],
      "name": "decimals",
      "outputs": [
        {
          "internalType": "uint8",
          "name": "",
          "type": "uint8"
        }
      ],
      "payable": false,
      "stateMutability": "view",
      "type": "function"
    },
    {
      "constant": true,
      "inputs": [],
      "name": "deployer",
      "outputs": [
        {
          "internalType": "address",
          "name": "",
          "type": "address"
        }
      ],
      "payable": false,
      "stateMutability": "view",
      "type": "function"
    },
    {
      "constant": true,
      "inputs": [],
      "name": "name",
      "outputs": [
        {
          "internalType": "string",
          "name": "",
          "type": "string"
        }
      ],
      "payable": false,
      "stateMutability": "view",
      "type": "function"
    },
    {
      "constant": true,
      "inputs": [],
      "name": "noOfReports",
      "outputs": [
        {
          "internalType": "uint256",
          "name": "",
          "type": "uint256"
        }
      ],
      "payable": false,
      "stateMutability": "view",
      "type": "function"
    },
    {
      "constant": true,
      "inputs": [],
      "name": "noOfUsers",
      "outputs": [
        {
          "internalType": "uint256",
          "name": "",
          "type": "uint256"
        }
      ],
      "payable": false,
      "stateMutability": "view",
      "type": "function"
    },
    {
      "constant": true,
      "inputs": [],
      "name": "rewardValue",
      "outputs": [
        {
          "internalType": "uint256",
          "name": "",
          "type": "uint256"
        }
      ],
      "payable": false,
      "stateMutability": "view",
      "type": "function"
    },
    {
      "constant": true,
      "inputs": [],
      "name": "symbol",
      "outputs": [
        {
          "internalType": "string",
          "name": "",
          "type": "string"
        }
      ],
      "payable": false,
      "stateMutability": "view",
      "type": "function"
    },
    {
      "constant": true,
      "inputs": [],
      "name": "totalSupply",
      "outputs": [
        {
          "internalType": "uint256",
          "name": "",
          "type": "uint256"
        }
      ],
      "payable": false,
      "stateMutability": "view",
      "type": "function"
    },
    {
      "constant": false,
      "inputs": [
        {
          "internalType": "address",
          "name": "_to",
          "type": "address"
        },
        {
          "internalType": "uint256",
          "name": "_value",
          "type": "uint256"
        }
      ],
      "name": "transfer",
      "outputs": [
        {
          "internalType": "bool",
          "name": "",
          "type": "bool"
        }
      ],
      "payable": false,
      "stateMutability": "nonpayable",
      "type": "function"
    },
    {
      "constant": false,
      "inputs": [
        {
          "internalType": "address",
          "name": "_from",
          "type": "address"
        },
        {
          "internalType": "address",
          "name": "_to",
          "type": "address"
        },
        {
          "internalType": "uint256",
          "name": "_value",
          "type": "uint256"
        }
      ],
      "name": "transferFrom",
      "outputs": [
        {
          "internalType": "bool",
          "name": "",
          "type": "bool"
        }
      ],
      "payable": false,
      "stateMutability": "nonpayable",
      "type": "function"
    },
    {
      "constant": false,
      "inputs": [
        {
          "internalType": "uint256",
          "name": "_latitude",
          "type": "uint256"
        },
        {
          "internalType": "uint256",
          "name": "_longitude",
          "type": "uint256"
        },
        {
          "internalType": "string",
          "name": "message",
          "type": "string"
        }
      ],
      "name": "addReport",
      "outputs": [],
      "payable": false,
      "stateMutability": "nonpayable",
      "type": "function"
    },
    {
      "constant": false,
      "inputs": [
        {
          "internalType": "uint256",
          "name": "_reportId",
          "type": "uint256"
        }
      ],
      "name": "voteReport",
      "outputs": [],
      "payable": false,
      "stateMutability": "nonpayable",
      "type": "function"
    },
    {
      "constant": false,
      "inputs": [
        {
          "internalType": "uint256",
          "name": "_reportId",
          "type": "uint256"
        }
      ],
      "name": "markHelpful",
      "outputs": [],
      "payable": false,
      "stateMutability": "nonpayable",
      "type": "function"
    },
    {
      "constant": false,
      "inputs": [
        {
          "internalType": "address",
          "name": "_hero",
          "type": "address"
        }
      ],
      "name": "giveIncentive",
      "outputs": [],
      "payable": false,
      "stateMutability": "nonpayable",
      "type": "function"
    }
  ],
  "bytecode": "0x60806040526012600360006101000a81548160ff021916908360ff1602179055503480156200002d57600080fd5b506040516200165338038062001653833981810160405260208110156200005357600080fd5b81019080805190602001909291905050506040518060400160405280600881526020017f544c52546f6b656e00000000000000000000000000000000000000000000000081525060019080519060200190620000b1929190620001b2565b506040518060400160405280600381526020017f544c52000000000000000000000000000000000000000000000000000000000081525060029080519060200190620000ff929190620001b2565b50600360009054906101000a900460ff1660ff16600a0a810260008190555080600460003373ffffffffffffffffffffffffffffffffffffffff1673ffffffffffffffffffffffffffffffffffffffff1681526020019081526020016000208190555033600660006101000a81548173ffffffffffffffffffffffffffffffffffffffff021916908373ffffffffffffffffffffffffffffffffffffffff16021790555060026007819055505062000261565b828054600181600116156101000203166002900490600052602060002090601f016020900481019282601f10620001f557805160ff191683800117855562000226565b8280016001018555821562000226579182015b828111156200022557825182559160200191906001019062000208565b5b50905062000235919062000239565b5090565b6200025e91905b808211156200025a57600081600090555060010162000240565b5090565b90565b6113e280620002716000396000f3fe608060405234801561001057600080fd5b50600436106101165760003560e01c8063510e3dec116100a2578063ae421f8a11610071578063ae421f8a14610630578063b34666681461065e578063d5f394881461068c578063dd62ed3e146106d6578063f7e436801461074e57610116565b8063510e3dec146104d157806370a08231146104ef57806395d89b4114610547578063a9059cbb146105ca57610116565b806318160ddd116100e957806318160ddd1461024057806323b872dd1461025e578063313ce567146102e457806344250ca514610308578063467f2cd8146103d757610116565b806301934a831461011b57806306fdde0314610139578063095ea7b3146101bc57806312c7df7314610222575b600080fd5b610123610792565b6040518082815260200191505060405180910390f35b610141610798565b6040518080602001828103825283818151815260200191508051906020019080838360005b83811015610181578082015181840152602081019050610166565b50505050905090810190601f1680156101ae5780820380516001836020036101000a031916815260200191505b509250505060405180910390f35b610208600480360360408110156101d257600080fd5b81019080803573ffffffffffffffffffffffffffffffffffffffff16906020019092919080359060200190929190505050610836565b604051808215151515815260200191505060405180910390f35b61022a610928565b6040518082815260200191505060405180910390f35b61024861092e565b6040518082815260200191505060405180910390f35b6102ca6004803603606081101561027457600080fd5b81019080803573ffffffffffffffffffffffffffffffffffffffff169060200190929190803573ffffffffffffffffffffffffffffffffffffffff16906020019092919080359060200190929190505050610934565b604051808215151515815260200191505060405180910390f35b6102ec610a5f565b604051808260ff1660ff16815260200191505060405180910390f35b6103d56004803603606081101561031e57600080fd5b8101908080359060200190929190803590602001909291908035906020019064010000000081111561034f57600080fd5b82018360208201111561036157600080fd5b8035906020019184600183028401116401000000008311171561038357600080fd5b91908080601f016020809104026020016040519081016040528093929190818152602001838380828437600081840152601f19601f820116905080830192505050505050509192919290505050610a72565b005b610403600480360360208110156103ed57600080fd5b8101908080359060200190929190505050610cd0565b604051808773ffffffffffffffffffffffffffffffffffffffff1673ffffffffffffffffffffffffffffffffffffffff1681526020018681526020018581526020018060200184815260200183151515158152602001828103825285818151815260200191508051906020019080838360005b83811015610491578082015181840152602081019050610476565b50505050905090810190601f1680156104be5780820380516001836020036101000a031916815260200191505b5097505050505050505060405180910390f35b6104d9610dd1565b6040518082815260200191505060405180910390f35b6105316004803603602081101561050557600080fd5b81019080803573ffffffffffffffffffffffffffffffffffffffff169060200190929190505050610dd7565b6040518082815260200191505060405180910390f35b61054f610def565b6040518080602001828103825283818151815260200191508051906020019080838360005b8381101561058f578082015181840152602081019050610574565b50505050905090810190601f1680156105bc5780820380516001836020036101000a031916815260200191505b509250505060405180910390f35b610616600480360360408110156105e057600080fd5b81019080803573ffffffffffffffffffffffffffffffffffffffff16906020019092919080359060200190929190505050610e8d565b604051808215151515815260200191505060405180910390f35b61065c6004803603602081101561064657600080fd5b8101908080359060200190929190505050610ea4565b005b61068a6004803603602081101561067457600080fd5b8101908080359060200190929190505050610ecc565b005b6106946110d0565b604051808273ffffffffffffffffffffffffffffffffffffffff1673ffffffffffffffffffffffffffffffffffffffff16815260200191505060405180910390f35b610738600480360360408110156106ec57600080fd5b81019080803573ffffffffffffffffffffffffffffffffffffffff169060200190929190803573ffffffffffffffffffffffffffffffffffffffff1690602001909291905050506110f6565b6040518082815260200191505060405180910390f35b6107906004803603602081101561076457600080fd5b81019080803573ffffffffffffffffffffffffffffffffffffffff16906020019092919050505061111b565b005b60095481565b60018054600181600116156101000203166002900480601f01602080910402602001604051908101604052809291908181526020018280546001816001161561010002031660029004801561082e5780601f106108035761010080835404028352916020019161082e565b820191906000526020600020905b81548152906001019060200180831161081157829003601f168201915b505050505081565b600081600560003373ffffffffffffffffffffffffffffffffffffffff1673ffffffffffffffffffffffffffffffffffffffff16815260200190815260200160002060008573ffffffffffffffffffffffffffffffffffffffff1673ffffffffffffffffffffffffffffffffffffffff168152602001908152602001600020819055508273ffffffffffffffffffffffffffffffffffffffff163373ffffffffffffffffffffffffffffffffffffffff167f8c5be1e5ebec7d5bd14f71427d1e84f3dd0314c0f7b2291e5b200ac8c7c3b925846040518082815260200191505060405180910390a36001905092915050565b60075481565b60005481565b6000600560008573ffffffffffffffffffffffffffffffffffffffff1673ffffffffffffffffffffffffffffffffffffffff16815260200190815260200160002060003373ffffffffffffffffffffffffffffffffffffffff1673ffffffffffffffffffffffffffffffffffffffff168152602001908152602001600020548211156109bf57600080fd5b81600560008673ffffffffffffffffffffffffffffffffffffffff1673ffffffffffffffffffffffffffffffffffffffff16815260200190815260200160002060003373ffffffffffffffffffffffffffffffffffffffff1673ffffffffffffffffffffffffffffffffffffffff16815260200190815260200160002060008282540392505081905550610a5484848461112b565b600190509392505050565b600360009054906101000a900460ff1681565b6001600860008282540192505081905550600073ffffffffffffffffffffffffffffffffffffffff16600a6000600854815260200190815260200160002060000160009054906101000a900473ffffffffffffffffffffffffffffffffffffffff1673ffffffffffffffffffffffffffffffffffffffff161415610b06576001600960008282540192505081905550610b07565b5b6040518060c001604052803373ffffffffffffffffffffffffffffffffffffffff1681526020018481526020018381526020018281526020016000815260200160001515815250600a6000600854815260200190815260200160002060008201518160000160006101000a81548173ffffffffffffffffffffffffffffffffffffffff021916908373ffffffffffffffffffffffffffffffffffffffff16021790555060208201518160010155604082015181600201556060820151816003019080519060200190610bda929190611308565b506080820151816004015560a08201518160050160006101000a81548160ff0219169083151502179055509050503373ffffffffffffffffffffffffffffffffffffffff167f130c24c5165048fa1c9965df33a72e18e5d97a8b0586cbf5d88ef6726a4033b88484846040518084815260200183815260200180602001828103825283818151815260200191508051906020019080838360005b83811015610c8f578082015181840152602081019050610c74565b50505050905090810190601f168015610cbc5780820380516001836020036101000a031916815260200191505b5094505050505060405180910390a2505050565b600a6020528060005260406000206000915090508060000160009054906101000a900473ffffffffffffffffffffffffffffffffffffffff1690806001015490806002015490806003018054600181600116156101000203166002900480601f016020809104026020016040519081016040528092919081815260200182805460018160011615610100020316600290048015610dae5780601f10610d8357610100808354040283529160200191610dae565b820191906000526020600020905b815481529060010190602001808311610d9157829003601f168201915b5050505050908060040154908060050160009054906101000a900460ff16905086565b60085481565b60046020528060005260406000206000915090505481565b60028054600181600116156101000203166002900480601f016020809104026020016040519081016040528092919081815260200182805460018160011615610100020316600290048015610e855780601f10610e5a57610100808354040283529160200191610e85565b820191906000526020600020905b815481529060010190602001808311610e6857829003601f168201915b505050505081565b6000610e9a33848461112b565b6001905092915050565b6001600a60008381526020019081526020016000206004016000828254019250508190555050565b600660009054906101000a900473ffffffffffffffffffffffffffffffffffffffff1673ffffffffffffffffffffffffffffffffffffffff163373ffffffffffffffffffffffffffffffffffffffff1614610f2657600080fd5b600260095481610f3257fe5b04600a60008381526020019081526020016000206004015411610f5457600080fd5b6001600a600083815260200190815260200160002060050160006101000a81548160ff021916908315150217905550610fc2600a600083815260200190815260200160002060000160009054906101000a900473ffffffffffffffffffffffffffffffffffffffff1661111b565b807fa7b871d8c25f79541cc6e2697e3327e01f1fb04b48fa6af0ec1bfef42c5a94dd600a600084815260200190815260200160002060010154600a600085815260200190815260200160002060020154600a600086815260200190815260200160002060030160405180848152602001838152602001806020018281038252838181546001816001161561010002031660029004815260200191508054600181600116156101000203166002900480156110bd5780601f10611092576101008083540402835291602001916110bd565b820191906000526020600020905b8154815290600101906020018083116110a057829003601f168201915b505094505050505060405180910390a250565b600660009054906101000a900473ffffffffffffffffffffffffffffffffffffffff1681565b6005602052816000526040600020602052806000526040600020600091509150505481565b61112781600754610e8d565b5050565b80600460008573ffffffffffffffffffffffffffffffffffffffff1673ffffffffffffffffffffffffffffffffffffffff16815260200190815260200160002054101561117757600080fd5b600460008373ffffffffffffffffffffffffffffffffffffffff1673ffffffffffffffffffffffffffffffffffffffff1681526020019081526020016000205481600460008573ffffffffffffffffffffffffffffffffffffffff1673ffffffffffffffffffffffffffffffffffffffff1681526020019081526020016000205401101561120457600080fd5b80600460008573ffffffffffffffffffffffffffffffffffffffff1673ffffffffffffffffffffffffffffffffffffffff1681526020019081526020016000206000828254039250508190555080600460008473ffffffffffffffffffffffffffffffffffffffff1673ffffffffffffffffffffffffffffffffffffffff168152602001908152602001600020600082825401925050819055508173ffffffffffffffffffffffffffffffffffffffff168373ffffffffffffffffffffffffffffffffffffffff167fddf252ad1be2c89b69c2b068fc378daa952ba7f163c4a11628f55a4df523b3ef836040518082815260200191505060405180910390a3505050565b828054600181600116156101000203166002900490600052602060002090601f016020900481019282601f1061134957805160ff1916838001178555611377565b82800160010185558215611377579182015b8281111561137657825182559160200191906001019061135b565b5b5090506113849190611388565b5090565b6113aa91905b808211156113a657600081600090555060010161138e565b5090565b9056fea265627a7a7231582007314846b4ef38f452995921c24b0e53e1867dfdc027bda8bfaee145c1a13c5a64736f6c634300050c0032",
  "source": "pragma solidity ^0.5.0;\n\n\ncontract TLRToken {\n    uint public totalSupply;\n    string public name;\n    string public symbol;\n    uint8 public decimals =18;\n    mapping(address => uint256) public balanceOf;\n    mapping(address => mapping(address => uint)) public allowance;\n    //this mapping keeps track which addresses have allowed whom to spend money from their wallets\n    \n    event Transfer(address indexed _from,address indexed _to,uint tokens);\n    event Approval(address indexed _tokenOwner,address indexed _spender,uint tokens);\n    event Burn(address indexed _from,uint _value);\n    \n    \n    constructor() public {\n  \n        name=\"TLRToken\";\n        symbol=\"TLR\";\n  \n    }\n    \n    function _transfer(address _from,address _to,uint _value) internal {\n        require(balanceOf[_from] >= _value);\n        require(balanceOf[_to] + _value >= balanceOf[_to]);\n        balanceOf[_from] -= _value;\n        balanceOf[_to] += _value;\n        emit Transfer(_from,_to,_value);\n    }\n    \n    function transfer(address _to,uint _value) public returns(bool) {\n        _transfer(msg.sender,_to,_value);\n        return true;\n    }\n    \n    function transferFrom(address _from,address _to,uint _value) public returns(bool) {\n        require(_value <= allowance[_from][msg.sender]);\n        allowance[_from][msg.sender] -= _value;\n        _transfer(_from,_to,_value);\n        return true;\n    }\n    \n    function approve(address _spender,uint _value) public returns(bool) {\n        allowance[msg.sender][_spender] = _value;\n        emit Approval(msg.sender,_spender,_value);\n        return true;\n        \n    }\n}\n\ncontract TLR is TLRToken {\n    \n    address public deployer;\n    \n    uint public rewardValue;\n\n    constructor(uint _initialSupply) public {\n    totalSupply = _initialSupply*10**uint256(decimals);\n    balanceOf[msg.sender] = _initialSupply;\n    deployer = msg.sender;\n    rewardValue=2;\n        \n    }\n    \n    uint public noOfReports;\n    uint public noOfUsers;    \n    struct Report{\n        address payable Reporter;\n        uint latitude;\n        uint longitude;\n        string message;\n        uint votes;\n        bool helped;\n    }\n \n    //keep track of all the reports by a particular user\n    //mapping(address => mapping(uint=>Report)) public ReportHub;\n\n\n\n    mapping(uint => Report) public Reports;\n\n\n\n    //event that will emit data on adding new report\n    event newReport(address indexed reporter,uint latitude,uint longitude,string message);\n    \n    event markedHelpful(uint indexed reportId,uint latitude,uint longitude,string message);\n    \n    \n     //add report to ReportHub\n    function addReport(uint _latitude, uint _longitude,string memory message) public {\n        \n        noOfReports+=1;\n\n        if(Reports[noOfReports].Reporter==address(0)) { noOfUsers+=1; }\n        else { }\n    \n    \n        Reports[noOfReports]=Report(msg.sender,_latitude,_longitude,message,0,false);\n        \n        emit newReport(msg.sender,_latitude,_longitude,message);\n        \n    }\n\n    //marks the report as helpful\n\n    function voteReport(uint _reportId) public {\n\n        Reports[_reportId].votes+=1;\n    \n    }\n\n    \n    function markHelpful(uint _reportId) public {\n\n        require(msg.sender==deployer);\n\n        //if more than 50% of active users, votes for a Report, then mark it as helped \n        require(Reports[_reportId].votes>noOfUsers/2);\n\n        Reports[_reportId].helped=true;\n\n        giveIncentive(Reports[_reportId].Reporter);\n\n        emit markedHelpful(_reportId,Reports[_reportId].latitude,Reports[_reportId].longitude,Reports[_reportId].message);\n\n    }\n    \n    \n    \n    //incentivizing the users if the report has helped to solve the crime\n    function giveIncentive(address _hero) public {\n    \n        transfer(_hero,rewardValue);\n\n    }\n\n    \n}",
  "sourcePath": "/home/hrishabh/Projects/Blockchain/Hackverse/TLR/contracts/TLR.sol",
  "compiler": {
    "name": "solc",
    "version": "0.5.12+commit.7709ece9.Emscripten.clang"
  },
  "schemaVersion": "3.0.19",
  "updatedAt": "2020-01-26T06:46:29.107Z",
  "networkType": "ethereum",
  "devdoc": {
    "methods": {}
  },
  "userdoc": {
    "methods": {}
  }
}