{
  "contractName": "TLR",
  "abi": [
    {
      "inputs": [],
      "payable": false,
      "stateMutability": "nonpayable",
      "type": "constructor"
    },
    {
      "anonymous": false,
      "inputs": [
        {
          "indexed": true,
          "internalType": "uint256",
          "name": "reportId",
          "type": "uint256"
        },
        {
          "indexed": false,
          "internalType": "uint256",
          "name": "latitude",
          "type": "uint256"
        },
        {
          "indexed": false,
          "internalType": "uint256",
          "name": "longitude",
          "type": "uint256"
        },
        {
          "indexed": false,
          "internalType": "string",
          "name": "message",
          "type": "string"
        }
      ],
      "name": "markedHelpful",
      "type": "event"
    },
    {
      "anonymous": false,
      "inputs": [
        {
          "indexed": true,
          "internalType": "address",
          "name": "reporter",
          "type": "address"
        },
        {
          "indexed": false,
          "internalType": "uint256",
          "name": "latitude",
          "type": "uint256"
        },
        {
          "indexed": false,
          "internalType": "uint256",
          "name": "longitude",
          "type": "uint256"
        },
        {
          "indexed": false,
          "internalType": "string",
          "name": "message",
          "type": "string"
        }
      ],
      "name": "newReport",
      "type": "event"
    },
    {
      "constant": true,
      "inputs": [
        {
          "internalType": "uint256",
          "name": "",
          "type": "uint256"
        }
      ],
      "name": "Reports",
      "outputs": [
        {
          "internalType": "address payable",
          "name": "Reporter",
          "type": "address"
        },
        {
          "internalType": "uint256",
          "name": "latitude",
          "type": "uint256"
        },
        {
          "internalType": "uint256",
          "name": "longitude",
          "type": "uint256"
        },
        {
          "internalType": "string",
          "name": "message",
          "type": "string"
        },
        {
          "internalType": "bool",
          "name": "helped",
          "type": "bool"
        }
      ],
      "payable": false,
      "stateMutability": "view",
      "type": "function"
    },
    {
      "constant": true,
      "inputs": [],
      "name": "deployer",
      "outputs": [
        {
          "internalType": "address",
          "name": "",
          "type": "address"
        }
      ],
      "payable": false,
      "stateMutability": "view",
      "type": "function"
    },
    {
      "constant": true,
      "inputs": [],
      "name": "noOfReports",
      "outputs": [
        {
          "internalType": "uint256",
          "name": "",
          "type": "uint256"
        }
      ],
      "payable": false,
      "stateMutability": "view",
      "type": "function"
    },
    {
      "constant": false,
      "inputs": [
        {
          "internalType": "uint256",
          "name": "_latitude",
          "type": "uint256"
        },
        {
          "internalType": "uint256",
          "name": "_longitude",
          "type": "uint256"
        },
        {
          "internalType": "string",
          "name": "message",
          "type": "string"
        }
      ],
      "name": "addReport",
      "outputs": [],
      "payable": false,
      "stateMutability": "nonpayable",
      "type": "function"
    },
    {
      "constant": false,
      "inputs": [
        {
          "internalType": "uint256",
          "name": "_reportId",
          "type": "uint256"
        }
      ],
      "name": "markHelpful",
      "outputs": [],
      "payable": false,
      "stateMutability": "nonpayable",
      "type": "function"
    },
    {
      "constant": false,
      "inputs": [
        {
          "internalType": "address",
          "name": "_hero",
          "type": "address"
        }
      ],
      "name": "giveIncentive",
      "outputs": [],
      "payable": false,
      "stateMutability": "nonpayable",
      "type": "function"
    }
  ],
  "bytecode": "0x608060405234801561001057600080fd5b50336000806101000a81548173ffffffffffffffffffffffffffffffffffffffff021916908373ffffffffffffffffffffffffffffffffffffffff16021790555061080b806100606000396000f3fe608060405234801561001057600080fd5b50600436106100625760003560e01c806344250ca514610067578063467f2cd814610136578063510e3dec14610229578063b346666814610247578063d5f3948814610275578063f7e43680146102bf575b600080fd5b6101346004803603606081101561007d57600080fd5b810190808035906020019092919080359060200190929190803590602001906401000000008111156100ae57600080fd5b8201836020820111156100c057600080fd5b803590602001918460018302840111640100000000831117156100e257600080fd5b91908080601f016020809104026020016040519081016040528093929190818152602001838380828437600081840152601f19601f820116905080830192505050505050509192919290505050610303565b005b6101626004803603602081101561014c57600080fd5b81019080803590602001909291905050506104cb565b604051808673ffffffffffffffffffffffffffffffffffffffff1673ffffffffffffffffffffffffffffffffffffffff1681526020018581526020018481526020018060200183151515158152602001828103825284818151815260200191508051906020019080838360005b838110156101ea5780820151818401526020810190506101cf565b50505050905090810190601f1680156102175780820380516001836020036101000a031916815260200191505b50965050505050505060405180910390f35b6102316105c6565b6040518082815260200191505060405180910390f35b6102736004803603602081101561025d57600080fd5b81019080803590602001909291905050506105cc565b005b61027d610709565b604051808273ffffffffffffffffffffffffffffffffffffffff1673ffffffffffffffffffffffffffffffffffffffff16815260200191505060405180910390f35b610301600480360360208110156102d557600080fd5b81019080803573ffffffffffffffffffffffffffffffffffffffff16906020019092919050505061072e565b005b6040518060a001604052803373ffffffffffffffffffffffffffffffffffffffff1681526020018481526020018381526020018281526020016000151581525060026000600154815260200190815260200160002060008201518160000160006101000a81548173ffffffffffffffffffffffffffffffffffffffff021916908373ffffffffffffffffffffffffffffffffffffffff160217905550602082015181600101556040820151816002015560608201518160030190805190602001906103cf929190610731565b5060808201518160040160006101000a81548160ff021916908315150217905550905050600180600082825401925050819055503373ffffffffffffffffffffffffffffffffffffffff167f130c24c5165048fa1c9965df33a72e18e5d97a8b0586cbf5d88ef6726a4033b88484846040518084815260200183815260200180602001828103825283818151815260200191508051906020019080838360005b8381101561048a57808201518184015260208101905061046f565b50505050905090810190601f1680156104b75780820380516001836020036101000a031916815260200191505b5094505050505060405180910390a2505050565b60026020528060005260406000206000915090508060000160009054906101000a900473ffffffffffffffffffffffffffffffffffffffff1690806001015490806002015490806003018054600181600116156101000203166002900480601f0160208091040260200160405190810160405280929190818152602001828054600181600116156101000203166002900480156105a95780601f1061057e576101008083540402835291602001916105a9565b820191906000526020600020905b81548152906001019060200180831161058c57829003601f168201915b5050505050908060040160009054906101000a900460ff16905085565b60015481565b60016002600083815260200190815260200160002060040160006101000a81548160ff021916908315150217905550807fa7b871d8c25f79541cc6e2697e3327e01f1fb04b48fa6af0ec1bfef42c5a94dd600260008481526020019081526020016000206001015460026000858152602001908152602001600020600201546002600086815260200190815260200160002060030160405180848152602001838152602001806020018281038252838181546001816001161561010002031660029004815260200191508054600181600116156101000203166002900480156106f65780601f106106cb576101008083540402835291602001916106f6565b820191906000526020600020905b8154815290600101906020018083116106d957829003601f168201915b505094505050505060405180910390a250565b6000809054906101000a900473ffffffffffffffffffffffffffffffffffffffff1681565b50565b828054600181600116156101000203166002900490600052602060002090601f016020900481019282601f1061077257805160ff19168380011785556107a0565b828001600101855582156107a0579182015b8281111561079f578251825591602001919060010190610784565b5b5090506107ad91906107b1565b5090565b6107d391905b808211156107cf5760008160009055506001016107b7565b5090565b9056fea265627a7a72315820e23266d82c4e92bd9180c1a3f013bc70d318ae4597226acb0098e5fe005917e964736f6c634300050c0032",
  "source": "pragma solidity ^0.5.0;\n\ncontract TLR {\n    \n    address public deployer;\n    \n    constructor() public {\n        \n        deployer = msg.sender;\n        \n    }\n    \n    uint public noOfReports;\n    \n    struct Report{\n        address payable Reporter;\n        uint latitude;\n        uint longitude;\n        string message;\n        bool helped;\n    }\n \n    //keep track of all the reports by a particular user\n    //mapping(address => mapping(uint=>Report)) public ReportHub;\n\n\n\n    mapping(uint => Report) public Reports;\n\n\n\n \n    //event that will emit data on adding new report\n    event newReport(address indexed reporter,uint latitude,uint longitude,string message);\n    \n    event markedHelpful(uint indexed reportId,uint latitude,uint longitude,string message);\n    \n    \n     //add report to ReportHub\n    function addReport(uint _latitude, uint _longitude,string memory message) public {\n       \n        Reports[noOfReports]=Report(msg.sender,_latitude,_longitude,message,false);\n        noOfReports+=1;\n        emit newReport(msg.sender,_latitude,_longitude,message);\n        \n        \n    }\n    \n    \n  \n    \n    \n    //marks the report as helpful\n    \n    \n    function markHelpful(uint _reportId) public {\n        \n        Reports[_reportId].helped=true;\n        \n        emit markedHelpful(_reportId,Reports[_reportId].latitude,Reports[_reportId].longitude,Reports[_reportId].message);\n\n\n    }\n    \n    \n    \n    //incentivizing the users if the report has helped to solve the crime\n    \n    \n    function giveIncentive(address _hero) public {\n        \n        //create ERC20 and use it as incentive\n        \n    \n    }\n\n    \n}",
  "sourcePath": "/home/hrishabh/Projects/Blockchain/TLR/contracts/TLR.sol",
  "compiler": {
    "name": "solc",
    "version": "0.5.12+commit.7709ece9.Emscripten.clang"
  },
  "schemaVersion": "3.0.19",
  "updatedAt": "2020-01-24T09:37:59.406Z",
  "devdoc": {
    "methods": {}
  },
  "userdoc": {
    "methods": {}
  }
}